:100000000C9454000C9473000C9473000C947300C3
:100010000C9473000C9473000C9473000C94730094
:100020000C9473000C9473000C9473000C94730084
:100030000C9473000C9473000C9473000C94730074
:100040000C9473000C9473000C9473000C94730064
:100050000C9473000C9473000C9473000C94730054
:100060000C9473000C9473000C9473000C94730044
:100070000C9473000C9473000C9473000C94730034
:100080000C9473000C9473000C9473009500FD00A5
:100090006501CD0135029D020503760379037C03DA
:1000A0007F0382038503880311241FBECFEFD0E4B2
:1000B000DEBFCDBF11E0A0E0B1E0E6E4F7E000E094
:1000C0000BBF02C007900D92AE30B107D9F721E007
:1000D000AEE0B1E001C01D92A031B207E1F70E948D
:1000E0008B030C94A1030C940000CF93C82F8A308B
:1000F00019F48DE00E9475008091C00085FFFCCF4F
:10010000C093C60080E090E0CF91089580B18095C3
:100110008F70E0910E01F0910F01E730F10508F0CA
:10012000DAC2EA5BFF4F0C949803811105C010926C
:100130000F0110920E01CFC29FEF980F923038F44A
:1001400081E090E090930F0180930E01C4C29DEF77
:10015000980F923038F482E090E090930F018093F2
:100160000E01B9C29BEF980F923038F483E090E013
:1001700090930F0180930E01AEC221E099EF980F8A
:10018000923008F020E091E0893009F090E02111F0
:1001900002C0992339F084E090E090930F0180939E
:1001A0000E0199C221E096EF980F923008F020E0FE
:1001B00091E08C3009F090E0211102C0992339F0D0
:1001C00085E090E090930F0180930E0184C221E0BE
:1001D00093EF980F923008F020E091E08F3009F013
:1001E00090E0211103C0992309F475C286E090E0E4
:1001F00090930F0180930E016EC2811105C0109281
:100200000F0110920E0167C29FEF980F923038F4E1
:1002100081E090E090930F0180930E015CC29DEF0E
:10022000980F923038F482E090E090930F01809321
:100230000E0151C29BEF980F923038F483E090E0AA
:1002400090930F0180930E0146C221E099EF980F21
:10025000923008F020E091E0893009F090E021111F
:1002600002C0992339F084E090E090930F018093CD
:100270000E0131C221E096EF980F923008F020E095
:1002800091E08C3009F090E0211102C0992339F0FF
:1002900085E090E090930F0180930E011CC221E055
:1002A00093EF980F923008F020E091E08F3009F042
:1002B00090E0211103C0992309F40DC286E090E07B
:1002C00090930F0180930E0106C2811105C0109218
:1002D0000F0110920E01FFC19FEF980F923038F47A
:1002E00081E090E090930F0180930E01F4C19DEFA7
:1002F000980F923038F482E090E090930F01809351
:100300000E01E9C19BEF980F923038F483E090E042
:1003100090930F0180930E01DEC121E099EF980FB9
:10032000923008F020E091E0893009F090E021114E
:1003300002C0992339F084E090E090930F018093FC
:100340000E01C9C121E096EF980F923008F020E02D
:1003500091E08C3009F090E0211102C0992339F02E
:1003600085E090E090930F0180930E01B4C121E0ED
:1003700093EF980F923008F020E091E08F3009F071
:1003800090E0211103C0992309F4A5C186E090E013
:1003900090930F0180930E019EC1811105C01092B0
:1003A0000F0110920E0197C19FEF980F923038F411
:1003B00081E090E090930F0180930E018CC19DEF3E
:1003C000980F923038F482E090E090930F01809380
:1003D0000E0181C19BEF980F923038F483E090E0DA
:1003E00090930F0180930E0176C121E099EF980F51
:1003F000923008F020E091E0893009F090E021117E
:1004000002C0992339F084E090E090930F0180932B
:100410000E0161C121E096EF980F923008F020E0C4
:1004200091E08C3009F090E0211102C0992339F05D
:1004300085E090E090930F0180930E014CC121E084
:1004400093EF980F923008F020E091E08F3009F0A0
:1004500090E0211103C0992309F43DC186E090E0AA
:1004600090930F0180930E0136C1811105C0109247
:100470000F0110920E012FC19FEF980F923038F4A8
:1004800081E090E090930F0180930E0124C19DEFD5
:10049000980F923038F482E090E090930F018093AF
:1004A0000E0119C19BEF980F923038F483E090E071
:1004B00090930F0180930E010EC121E099EF980FE8
:1004C000923008F020E091E0893009F090E02111AD
:1004D00002C0992339F084E090E090930F0180935B
:1004E0000E01F9C021E096EF980F923008F020E05D
:1004F00091E08C3009F090E0211102C0992339F08D
:1005000085E090E090930F0180930E01E4C021E01C
:1005100093EF980F923008F020E091E08F3009F0CF
:1005200090E0211103C0992309F4D5C086E090E042
:1005300090930F0180930E01CEC0811105C01092DF
:100540000F0110920E01C7C09FEF980F923038F440
:1005500081E090E090930F0180930E01BCC09DEF6D
:10056000980F923038F482E090E090930F018093DE
:100570000E01B1C09BEF980F923038F483E090E009
:1005800090930F0180930E01A6C021E099EF980F80
:10059000923008F020E091E0893009F090E02111DC
:1005A00002C0992339F084E090E090930F0180938A
:1005B0000E0191C021E096EF980F923008F020E0F4
:1005C00091E08C3009F090E0211102C0992339F0BC
:1005D00085E090E090930F0180930E017CC021E0B4
:1005E00093EF980F923008F020E091E08F3009F0FF
:1005F00090E0211103C0992309F46DC086E090E0DA
:1006000090930F0180930E0166C0811105C0109276
:100610000F0110920E015FC09FEF980F923038F4D7
:1006200081E090E090930F0180930E0154C09DEF04
:10063000980F923038F482E090E090930F0180930D
:100640000E0149C09BEF980F923038F483E090E0A0
:1006500090930F0180930E013EC021E099EF980F17
:10066000923008F020E091E0893009F090E021110B
:1006700002C0992339F084E090E090930F018093B9
:100680000E0129C021E096EF980F923008F020E08B
:1006900091E08C3009F090E0211102C0992339F0EB
:1006A00085E090E090930F0180930E0114C021E04B
:1006B00093EF980F923008F020E091E08F3009F02E
:1006C00090E0211102C0992331F086E090E09093F0
:1006D0000F0180930E01E0910E01F0910F01E730C0
:1006E000F105C0F4E35BFF4F0C94980380E488B9F4
:1006F000089580E688B9089580E788B9089588E369
:1007000088B908958CE388B908958EE388B908956F
:100710008FE388B9089511B88FEF82B987B918B8F7
:1007200010920F0110920E0118B80E948600FCCFA3
:10073000EE0FFF1F0024001C0BBE0790F691E02D6A
:060740000994F894FFCFBC
:0E07460000000002000000007500000000002E
:00000001FF
