:100000000C945A000C9479000C9479000C947900AB
:100010000C9479000C9479000C9479000C9479007C
:100020000C9479000C9479000C9479000C9479006C
:100030000C9479000C9479000C9479000C9479005C
:100040000C9479000C9479000C9479000C9479004C
:100050000C9479000C9479000C9479000C9479003C
:100060000C9479000C9479000C9479000C9479002C
:100070000C9479000C9479000C9479000C9479001C
:100080000C9479000C9479000C94790016011901F4
:100090001C011F012201250128012B012E01310124
:1000A0003F0141014301460149014C014F01520109
:1000B0005501580111241FBECFEFD0E4DEBFCDBFE4
:1000C00011E0A0E0B1E0EAEEF2E000E00BBF02C018
:1000D00007900D92AE30B107D9F721E0AEE0B1E064
:1000E00001C01D92A231B207E1F70E945D010C949C
:1000F00073010C940000CF93C82F8A3019F48DE05F
:100100000E947B008091C00085FFFCCFC093C60099
:1001100080E090E0CF91089580B180958370209128
:1001200010013091110122303105D9F138F4211537
:10013000310571F02130310569F15EC0243031059F
:1001400009F446C0A8F12530310509F451C054C066
:10015000811105C010921101109210014DC0813023
:1001600039F481E090E0909311018093100144C034
:10017000823039F482E090E0909311018093100175
:100180003BC08330C9F585E090E0909311018093E6
:10019000100132C083E090E0909311018093100130
:1001A0002BC084E090E0909311018093100124C053
:1001B000811105C010921101109210011DC08330F1
:1001C000D9F485E090E0909311018093100114C060
:1001D000811105C010921101109210010DC08330E1
:1001E00059F485E090E0909311018093100104C0D0
:1001F0001092110110921001809110019091110143
:100200008230910589F18530910509F454C0019738
:1002100009F052C0E8B18E2F90E08A30910508F0C5
:100220004BC0FC01EA5BFF4F0C946A0181E088B986
:10023000089582E088B9089583E088B9089584E03C
:1002400088B9089585E088B9089586E088B9089549
:1002500087E088B9089588E088B9089589E088B969
:10026000089589E088B90895E8B18E2F90E08A302A
:10027000910510F5FC01E05BFF4F0C946A0118B882
:10028000089518B8089581E088B9089582E088B982
:10029000089583E088B9089584E088B9089585E0D9
:1002A00088B9089586E088B9089587E088B90895E7
:1002B00088E088B9089518B8089511B88FEF82B909
:1002C00087B918B8109211011092100118B80E9445
:1002D0008C00FDCFEE0FFF1F0024001C0BBE07900B
:0A02E000F691E02D0994F894FFCF89
:0E02EA0000000002000000007B000000000089
:00000001FF
