:100000000C945C000C947B000C947B000C947B00A3
:100010000C947B000C947B000C947B000C947B0074
:100020000C947B000C947B000C947B000C947B0064
:100030000C947B000C947B000C947B000C947B0054
:100040000C947B000C947B000C947B000C947B0044
:100050000C947B000C947B000C947B000C947B0034
:100060000C947B000C947B000C947B000C947B0024
:100070000C947B000C947B000C947B000C947B0014
:100080000C947B000C947B000C947B00A000A900D6
:10009000B300BC00C600CF00D800E100EA00F300C6
:1000A000FC0023010F0111011301150117011901B2
:1000B0001B011D011F01210111241FBECFEFD0E440
:1000C000DEBFCDBF11E0A0E0B1E0ECE7F2E000E080
:1000D0000BBF02C007900D92AE30B107D9F721E0F7
:1000E000AEE0B1E001C01D92A031B207E1F70E947D
:1000F00026010C943C010C940000CF93C82F8A3049
:1001000019F48DE00E947D008091C00085FFFCCF36
:10011000C093C60080E090E0CF91089580B1982F01
:10012000917083B180958F73E0910E01F0910F0172
:10013000EB30F10508F068C0EA5BFF4F0C94330127
:10014000911162C021E030E030930F0120930E0145
:100150005BC0992309F458C022E030E030930F01CE
:1001600020930E0151C091114FC023E030E0309335
:100170000F0120930E0148C0992309F445C024E0E3
:1001800030E030930F0120930E013EC091113CC02E
:1001900025E030E030930F0120930E0135C0992304
:1001A00099F126E030E030930F0120930E012CC02E
:1001B00091112AC027E030E030930F0120930E0107
:1001C00023C0992309F128E030E030930F012093F8
:1001D0000E011AC0911118C029E030E030930F01D0
:1001E00020930E0111C0992379F02AE030E030937A
:1001F0000F0120930E0108C0911106C021E030E0EC
:1002000030930F0120930E01E0910E01F0910F0148
:10021000EB30F105C8F4EF5AFF4F0C94330185E140
:1002200013C085E111C08AE20FC08AE20DC087E0E9
:100230000BC087E009C088E307C088E305C081E2FE
:1002400003C081E201C080E085B9089511B88FEF45
:1002500082B984B915B810920F0110920E0115B829
:100260000E948E00FDCFEE0FFF1F0024001C0BBE6E
:0C0270000790F691E02D0994F894FFCF60
:0E027C0000000002000000007D0000000000F5
:00000001FF
