:100000000C9446000C9465000C9465000C946500FB
:100010000C9465000C9465000C9465000C946500CC
:100020000C9465000C9465000C9465000C946500BC
:100030000C9465000C9465000C9465000C946500AC
:100040000C9465000C9465000C9465000C9465009C
:100050000C9465000C9465000C9465000C9465008C
:100060000C9465000C9465000C9465000C9465007C
:100070000C9465000C9465000C9465000C9465006C
:100080000C9465000C9465000C94650011241FBE4F
:10009000CFEFD0E4DEBFCDBF11E0A0E0B1E0E6E5F8
:1000A000F2E000E00BBF02C007900D92A231B10751
:1000B000D9F721E0A2E1B1E001C01D92A931B20758
:1000C000E1F70E9409010C9429010C940000CF93E0
:1000D000C82F8A3019F48DE00E9467008091C0001B
:1000E00085FFFCCFC093C60080E090E0CF910895DB
:1000F000EAE7F0E08081806E808308958BE0809352
:1001000081008DE790E0909389008093880082E0E1
:1001100080936F00109285001092840080910001FE
:1001200090910101A0910201B0910301809312010D
:1001300090931301A0931401B09315018FB78068B9
:100140008FBF089510928100089581E08093160179
:1001500008958091120190911301A0911401B09122
:1001600015010197A109B109809312019093130120
:10017000A0931401B0931501892B8A2B8B2B91F43A
:100180000E94A5008091000190910101A0910201BF
:10019000B09103018093120190931301A093140175
:1001A000B09315010895609300017093010180934D
:1001B00002019093030160931201709313018093E5
:1001C00014019093150108952091780030917900E1
:1001D000422F022E000C550B8091170190911801AF
:1001E000892B31F481E090E09093180180931701FE
:1001F0008091170190911801009719F0019721F053
:1002000005C015B81BB8089525B95BB915B81BB85A
:10021000089511B88FEF82B984B985B98AB91BB82E
:100220000E94780064E670E080E090E00E94D300D5
:100230000E947E0015B81BB8109218011092170189
:100240000E94E400809116018823E1F310921601C8
:06025000F7CFF894FFCF88
:10025600010000000000000200000000670000002E
:02026600000096
:00000001FF
