:100000000C9454000C9473000C9473000C947300C3
:100010000C9473000C9473000C9473000C94730094
:100020000C9473000C9473000C9473000C94730084
:100030000C9473000C942A010C9473000C947300BC
:100040000C9473000C9473000C9473000C94730064
:100050000C9473000C9473000C9473000C94730054
:100060000C9473000C9473000C9473000C94730044
:100070000C9473000C9473000C9473000C94730034
:100080000C9473000C9473000C94730098019F01FE
:10009000AF01BF01CF01E101F301170219021C02F8
:1000A0001F0222025E026F0211241FBECFEFD0E4B6
:1000B000DEBFCDBF11E0A0E0B1E0EEE3F5E000E08F
:1000C0000BBF02C007900D92AA31B107D9F721E00A
:1000D000AAE1B1E001C01D92A132B207E1F70E948E
:1000E00070020C949D020C94000040E050E00CC0A3
:1000F00000002F5F3F4F02C020E030E0273063E078
:100100003607B4F34F5F5F4F48175907ACF30895B4
:100110009BB19F7B9BB988B98BB180688BB900007C
:100120008BB18F778BB982E090E00E9475000895C3
:1001300081E00E9488000895813120F481580E9456
:100140008800089581550E948800089584E690E013
:100150000E94750088E30E94880086E00E94880063
:100160008FE00E94880081E00E9488008AE090E091
:100170000E94750008959BB190649BB988B98BB1BA
:1001800080688BB900008BB18F778BB981E090E0EC
:100190000E9475000895EF92FF920F931F93CF93E3
:1001A000DF93182FEB010E9498000EC001E0010FB1
:1001B000812F0E949C007E018FEFE81AF80A888147
:1001C0000E94BB00102FE70188818111EFCFDF91E2
:1001D000CF911F910F91FF90EF900895CF93C82F6B
:1001E0008A3019F48DE00E94EE008091C00085FFF6
:1001F000FCCFC093C60080E090E0CF9108958BE0E3
:10020000809381008DE790E090938900809388002F
:1002100082E080936F00109285001092840080919C
:10022000010190910201A0910301B091040180931A
:100230001A0190931B01A0931C01B0931D018FB76D
:1002400080688FBF089510928100089581E08093A7
:100250001E0108951F920F920FB60F9211240BB634
:100260000F922F933F934F935F936F937F938F934F
:100270009F93AF93BF93EF93FF9380911A01909157
:100280001B01A0911C01B0911D010197A109B109A9
:1002900080931A0190931B01A0931C01B0931D0140
:1002A000892B8A2B8B2B91F40E94260180910101CE
:1002B00090910201A0910301B091040180931A0171
:1002C00090931B01A0931C01B0931D01FF91EF912E
:1002D000BF91AF919F918F917F916F915F914F915E
:1002E0003F912F910F900BBE0F900FBE0F901F905C
:1002F000189560930101709302018093030190931C
:10030000040160931A0170931B0180931C01909368
:100310001D01089580B18170E0911F01F0912001CD
:10032000E730F10508F071C0EA5BFF4F0C949402CE
:1003300081E090E09093200180931F016CC08111B7
:1003400007C084E090E09093200180931F0163C078
:1003500082E090E09093200180931F015CC08111A6
:1003600007C084E090E09093200180931F0153C068
:1003700083E090E09093200180931F014CC0811195
:1003800007C084E090E09093200180931F0143C058
:1003900081E090E09093200180931F013CC0811187
:1003A00007C084E090E09093200180931F0133C048
:1003B000882389F185E090E09093200180931F01CC
:1003C0002AC0811107C086E090E0909320018093BD
:1003D0001F0121C08823F9F085E090E0909320016F
:1003E00080931F0118C0811107C086E090E09093B0
:1003F000200180931F010FC0882369F081E090E005
:100400009093200180931F0106C081E090E09093BB
:10041000200180931F01E0911F01F0912001E7303E
:10042000F10508F05AC0E35BFF4F0C94940215B835
:10043000089581E085B9089582E085B9089584E042
:1004400085B908950E94980085B1813079F4809132
:100450000001882319F081508093000180910001F0
:10046000805D0E94BB0081E085B9089585B182302E
:1004700099F4809100018F5F80930001893020F40E
:10048000805D0E94BB0005C063E171E081E00E94D5
:10049000CB0082E085B9089585B1843001F5809163
:1004A0000001882319F081508093000180910001A0
:1004B000805D0E94BB0084E085B9089585B18130DC
:1004C00011F485B9089585B1823011F485B9089584
:1004D00085B1843021F485B9089581E085B9089506
:1004E00011B88FEF82B984B985B987B918B88AB9BC
:1004F0001BB80E94A60085E30E94BB006CE271E07D
:1005000080E090E00E9479010E94FF0015B81092EF
:10051000200110921F010E948A0180911E018823F0
:10052000E1F310921E01F7CFEE0FFF1F0024001C15
:0E0530000BBE0790F691E02D0994F894FFCFD2
:10053E0005010000000000000200000000EE0000B7
:0A054E0000000057494E4E455200D0
:00000001FF
