:100000000C945A000C9479000C9479000C947900AB
:100010000C9479000C9479000C9479000C9479007C
:100020000C9479000C9479000C9479000C9479006C
:100030000C9479000C9430010C9479000C947900A4
:100040000C9479000C9479000C9479000C9479004C
:100050000C9479000C9479000C9479000C9479003C
:100060000C9479000C9479000C9479000C9479002C
:100070000C9479000C9479000C9479000C9479001C
:100080000C9479000C9479000C94790033023A02B4
:10009000410248024F0256025D0264026B02720284
:1000A00088028E0294029B02A202A902B002B70249
:1000B000BE02C50211241FBECFEFD0E4DEBFCDBF0C
:1000C00011E0A0E0B1E0E0E0F6E000E00BBF02C02C
:1000D00007900D92A231B107D9F721E0A2E1B1E07A
:1000E00001C01D92AB31B207E1F70E94D4020C941B
:1000F000FE020C94000040E050E00CC000002F5FB6
:100100003F4F02C020E030E0273063E03607B4F311
:100110004F5F5F4F48175907ACF308959BB19F7B22
:100120009BB988B98BB180688BB900008BB18F7790
:100130008BB982E090E00E947B00089581E00E94EC
:100140008E000895813120F481580E948E00089518
:1001500081550E948E00089584E690E00E947B0005
:1001600088E30E948E0086E00E948E008FE00E944D
:100170008E0081E00E948E008AE090E00E947B0069
:1001800008959BB190649BB988B98BB180688BB995
:1001900000008BB18F778BB981E090E00E947B00EB
:1001A0000895EF92FF920F931F93CF93DF93182F31
:1001B000EB010E949E000EC001E0010F812F0E9402
:1001C000A2007E018FEFE81AF80A88810E94C10020
:1001D000102FE70188818111EFCFDF91CF911F911F
:1001E0000F91FF90EF900895CF93C82F8A3019F4A4
:1001F0008DE00E94F4008091C00085FFFCCFC09389
:10020000C60080E090E0CF9108958BE0809381005C
:100210008DE790E0909389008093880082E080933E
:100220006F001092850010928400809100019091DF
:100230000101A0910201B0910301809312019093FA
:100240001301A0931401B09315018FB780688FBF7D
:10025000089510928100089581E080931601089519
:100260001F920F920FB60F9211240BB60F922F937D
:100270003F934F935F936F937F938F939F93AF932E
:10028000BF93EF93FF938091120190911301A0917E
:100290001401B09115010197A109B10980931201D0
:1002A00090931301A0931401B0931501892B8A2B0D
:1002B0008B2B91F40E942C018091000190910101FF
:1002C000A0910201B0910301809312019093130158
:1002D000A0931401B0931501FF91EF91BF91AF91DD
:1002E0009F918F917F916F915F914F913F912F914E
:1002F0000F900BBE0F900FBE0F901F90189560933C
:1003000000017093010180930201909303016093B7
:1003100012017093130180931401909315010895B5
:1003200080B1809583702091190130911A0122309B
:100330003105D1F138F42115310561F02130310555
:1003400061F173C023303105B1F12430310509F476
:1003500068C06BC0811105C010921A01109219017A
:1003600064C0813039F481E090E090931A01809369
:1003700019015BC0823039F482E090E090931A0159
:100380008093190152C0833009F04FC084E090E09F
:1003900090931A018093190148C083E090E09093F4
:1003A0001A018093190141C083E090E090931A01F3
:1003B000809319013AC0811107C010921801109260
:1003C0001A011092190131C0813081F48091180115
:1003D0008F5F809318018A3041F51092180181E0F7
:1003E00090E090931A01809319011FC0823081F42C
:1003F000809118018F5F809318018A30B1F41092B8
:10040000180182E090E090931A01809319010DC0C9
:10041000833059F484E090E090931A01809319019D
:1004200004C010921A011092190180911901909143
:100430001A018230910509F45CC08430910509F4F9
:10044000ABC0019709F0AFC00E949E00E091170178
:100450008E2F90E08A30910508F0A5C0FC01EA5B80
:10046000FF4F0C94F50281E08093170181E30E9415
:10047000C100089582E08093170182E30E94C100C9
:10048000089583E08093170183E30E94C1000895DB
:1004900084E08093170184E30E94C100089585E001
:1004A0008093170185E30E94C100089586E0809340
:1004B000170186E30E94C100089587E08093170129
:1004C00087E30E94C100089588E08093170188E3C4
:1004D0000E94C100089589E08093170189E30E947A
:1004E000C100089589E08093170189E30E94C1004B
:1004F00008950E949E00E09117018E2F90E08A30AF
:10050000910508F050C0FC01E05BFF4F0C94F50230
:100510001092170180E30E94C10008951092170104
:1005200080E30E94C100089581E08093170181E378
:100530000E94C100089582E08093170182E30E9427
:10054000C100089583E08093170183E30E94C100F6
:10055000089584E08093170184E30E94C100089508
:1005600085E08093170185E30E94C100089586E02D
:100570008093170186E30E94C100089587E080936D
:10058000170187E30E94C100089588E08093170156
:1005900088E30E94C1000895109217010E949E00F6
:1005A00080E30E94C100089511B88FEF82B987B926
:1005B00018B88AB91BB80E94AC0080E30E94C10041
:1005C00064E670E080E090E00E947F010E940501F7
:1005D00010921A01109219010E9490018091160147
:1005E0008823E1F310921601F7CFEE0FFF1F0024CE
:1005F000001C0BBE0790F691E02D0994F894FFCFF4
:10060000010000000000000200000000F4000000F3
:020610000000E8
:00000001FF
