:100000000C945A000C9479000C9479000C947900AB
:100010000C9479000C9479000C9479000C9479007C
:100020000C9479000C9479000C9479000C9479006C
:100030000C9479000C94B7000C9479000C9479001E
:100040000C9479000C9479000C9479000C9479004C
:100050000C9479000C9479000C9479000C9479003C
:100060000C9479000C9479000C9479000C9479002C
:100070000C9479000C9479000C9479000C9479001C
:100080000C9479000C9479000C947900B601B901B4
:10009000BC01BF01C201C501C801CB01CE01D10124
:1000A000DF01E101E301E601E901EC01EF01F20109
:1000B000F501F80111241FBECFEFD0E4DEBFCDBFA4
:1000C00011E0A0E0B1E0E8E4F4E000E00BBF02C022
:1000D00007900D92A231B107D9F721E0A2E1B1E07A
:1000E00001C01D92AA31B207E1F70E94FD010C94F4
:1000F00022020C940000CF93C82F8A3019F48DE0AF
:100100000E947B008091C00085FFFCCFC093C60099
:1001100080E090E0CF9108958BE0809381008DE79F
:1001200090E0909389008093880082E080936F0034
:10013000109285001092840080910001909101013D
:10014000A0910201B09103018093120190931301D9
:10015000A0931401B09315018FB780688FBF0895E5
:1001600010928100089581E08093160108951F92F6
:100170000F920FB60F9211240BB60F922F933F934D
:100180004F935F936F937F938F939F93AF93BF939F
:10019000EF93FF938091120190911301A0911401AC
:1001A000B09115010197A109B109809312019093B3
:1001B0001301A0931401B0931501892B8A2B8B2B6B
:1001C00091F40E94B3008091000190910101A091EF
:1001D0000201B09103018093120190931301A09347
:1001E0001401B0931501FF91EF91BF91AF919F91D1
:1001F0008F917F916F915F914F913F912F910F90D0
:100200000BBE0F900FBE0F901F90189560930001CA
:100210007093010180930201909303016093120196
:10022000709313018093140190931501089580B188
:100230008095837020911801309119012230310589
:10024000D1F138F42115310561F02130310561F12A
:1002500073C023303105B1F12430310509F468C091
:100260006BC0811105C0109219011092180164C071
:10027000813039F481E090E0909319018093180166
:100280005BC0823039F482E090E090931901809352
:10029000180152C0833009F04FC084E090E0909381
:1002A00019018093180148C083E090E090931901F0
:1002B0008093180141C083E090E0909319018093EE
:1002C00018013AC0811107C010921701109219014C
:1002D0001092180131C0813081F4809117018F5F35
:1002E000809317018A3041F51092170181E090E068
:1002F00090931901809318011FC0823081F480917E
:1003000017018F5F809317018A30B1F410921701A3
:1003100082E090E090931901809318010DC0833022
:1003200059F484E090E0909319018093180104C07F
:1003300010921901109218018091180190911901E1
:100340008230910589F18430910509F454C00197F8
:1003500009F052C0E5B18E2F90E08A30910508F087
:100360004BC0FC01EA5BFF4F0C94190281E085B998
:10037000089582E085B9089583E085B9089584E001
:1003800085B9089585E085B9089586E085B9089511
:1003900087E085B9089588E085B9089589E085B931
:1003A000089589E085B90895E5B18E2F90E08A30EF
:1003B000910510F5FC01E05BFF4F0C94190215B894
:1003C000089515B8089581E085B9089582E085B94A
:1003D000089583E085B9089584E085B9089585E09E
:1003E00085B9089586E085B9089587E085B90895AF
:1003F00088E085B9089515B8089511B88FEF82B9CE
:1004000084B915B887E085B964E670E080E090E0D3
:100410000E9406010E948C0010921901109218018E
:100420000E941701809116018823E1F310921601B2
:10043000F7CFEE0FFF1F0024001C0BBE0790F691B4
:08044000E02D0994F894FFCFB0
:100448000100000000000002000000007B00000026
:020458000000A2
:00000001FF
