:100000000C9454000C9473000C9473000C947300C3
:100010000C9473000C9473000C9473000C94730094
:100020000C9473000C9473000C9473000C94730084
:100030000C9473000C94B1000C9473000C94730036
:100040000C9473000C9473000C9473000C94730064
:100050000C9473000C9473000C9473000C94730054
:100060000C9473000C9473000C9473000C94730044
:100070000C9473000C9473000C9473000C94730034
:100080000C9473000C9473000C9473001F012601F0
:1000900036014601560168017A019D019F01A201C6
:1000A000A501A801B701C80111241FBECFEFD0E4FC
:1000B000DEBFCDBF11E0A0E0B1E0EEEDF3E000E087
:1000C0000BBF02C007900D92A231B107D9F721E012
:1000D000A2E1B1E001C01D92A931B207E1F70E948F
:1000E000C9010C94ED010C940000CF93C82F8A3005
:1000F00019F48DE00E9475008091C00085FFFCCF4F
:10010000C093C60080E090E0CF9108958BE080938B
:1001100081008DE790E0909389008093880082E0D1
:1001200080936F00109285001092840080910001EE
:1001300090910101A0910201B091030180931201FD
:1001400090931301A0931401B09315018FB78068A9
:100150008FBF089510928100089581E08093160169
:1001600008951F920F920FB60F9211240BB60F92A3
:100170002F933F934F935F936F937F938F939F93AF
:10018000AF93BF93EF93FF9380911201909113016E
:10019000A0911401B09115010197A109B1098093B3
:1001A000120190931301A0931401B0931501892BB0
:1001B0008A2B8B2B91F40E94AD00809100019091CD
:1001C0000101A0910201B09103018093120190936B
:1001D0001301A0931401B0931501FF91EF91BF910A
:1001E000AF919F918F917F916F915F914F913F91CF
:1001F0002F910F900BBE0F900FBE0F901F90189570
:1002000060930001709301018093020190930301B8
:100210006093120170931301809314019093150160
:10022000089580B18170E0911701F0911801E730D5
:10023000F10508F071C0EA5BFF4F0C94E40181E026
:1002400090E090931801809317016CC0811107C052
:1002500084E090E0909318018093170163C082E0DE
:1002600090E090931801809317015CC0811107C042
:1002700084E090E0909318018093170153C083E0CD
:1002800090E090931801809317014CC0811107C032
:1002900084E090E0909318018093170143C081E0BF
:1002A00090E090931801809317013CC0811107C022
:1002B00084E090E0909318018093170133C0882365
:1002C00089F185E090E090931801809317012AC08E
:1002D000811107C086E090E0909318018093170188
:1002E00021C08823F9F085E090E090931801809375
:1002F000170118C0811107C086E090E090931801A3
:10030000809317010FC0882369F081E090E09093FB
:1003100018018093170106C081E090E090931801C6
:1003200080931701E0911701F0911801E730F10572
:1003300068F5E35BFF4F0C94E40115B8089581E084
:1003400085B9089582E085B9089584E085B9089556
:1003500085B1813011F485B9089585B1823011F4E9
:1003600085B9089585B1843099F485B9089585B12A
:10037000813011F485B9089585B1823011F485B9C1
:10038000089585B1843021F485B9089581E085B957
:10039000089511B88FEF82B984B915B815B86CE219
:1003A00071E080E090E00E9400010E9486001092BF
:1003B0001801109217010E941101809116018823E3
:1003C000E1F310921601F7CFEE0FFF1F0024001C7F
:0E03D0000BBE0790F691E02D0994F894FFCF34
:1003DE000100000000000002000000007500000097
:0203EE0000000D
:00000001FF
